:100000000C942A000C940C090C9433090C945A0992
:100010000C9447000C9447000C9447000C94470044
:100020000C9447000C9447000C9447000C94470034
:100030000C9447000C9447000C9447000C94470024
:100040000C941C070C9447000C9447000C94470038
:100050000C94470011241FBECFE5D8E0DEBFCDBF12
:1000600011E0A0E6B0E0E8E1F7E102C005900D92F2
:10007000AE36B107D9F711E0AEE6B1E001C01D928E
:10008000A637B107E1F70E94210B0C948A0B0C9460
:100090000000EF92FF920F931F937B018C0120E0F1
:1000A00030E040E05FE40E94C50388238CF0C80183
:1000B000B70120E030E040E05FE40E94C1010E940F
:1000C000F5039B01AC01205030404040504806C031
:1000D000C801B7010E94F5039B01AC01B901CA0137
:1000E0001F910F91FF90EF900895A0E0B0E0EBE733
:1000F000F0E00C94530BDC012B01FA019C9192303F
:1001000008F439C1EB018881823008F433C194309E
:1001100069F4843009F02FC111969C91119789815F
:10012000981709F428C1A6E6B0E025C1843009F487
:1001300021C18230A9F4923009F01DC19A01AD01AC
:1001400088E0EA010990AE01E90109929E0181501F
:10015000C1F7E201898111969C918923818308C1AD
:10016000923009F407C112962D903C901397EB0141
:100170008A819B811496AD90BD90CD90DC901797AD
:10018000EC80FD800E811F819101281B390BB90184
:1001900037FF04C066277727621B730B6032710537
:1001A0000CF061C0121613066CF537014801062EDB
:1001B00004C096948794779467940A94D2F721E0C8
:1001C00030E040E050E004C0220F331F441F551FB1
:1001D0006A95D2F721503040404050402E213F21B7
:1001E00040235123211531054105510521F021E01E
:1001F00030E040E050E079018A01E628F72808293C
:1002000019293CC0232BD1F1260E371E350146019A
:10021000062E04C096948794779467940A94D2F734
:1002200021E030E040E050E004C0220F331F441FC3
:10023000551F6A95D2F721503040404050402A2146
:100240003B214C215D21211531054105510521F04E
:1002500021E030E040E050E059016A01A628B728CB
:10026000C828D9280BC0821593052CF01C01AA249C
:10027000BB24650103C0EE24FF24870111969C91E5
:10028000D20111968C91981709F445C0992339F041
:10029000A80197012A193B094C095D0906C0A6016E
:1002A00095012E193F09400B510B57FD08C01182D3
:1002B0003382228224833583468357831DC081E0A5
:1002C00081833382228288279927DC01821B930B4A
:1002D000A40BB50B84839583A683B7830DC0220F2F
:1002E000331F441F551F24833583468357838281E0
:1002F000938101979383828324813581468157813D
:10030000DA01C9010197A109B1098F5F9F4FAF4F72
:10031000BF4328F30BC0918333822282EA0CFB1C7B
:100320000C1D1D1DE482F5820683178383E0808304
:10033000248135814681578157FF1AC0C901AA27F8
:1003400097FDA095BA2F81709070A070B0705695EF
:10035000479537952795822B932BA42BB52B848318
:100360009583A683B7838281938101969383828349
:10037000DF0101C0D201CD01CDB7DEB7E2E10C94BF
:100380006F0BA0E2B0E0E7ECF1E00C945F0B698347
:100390007A838B839C832D833E834F835887E9E048
:1003A000EE2EF12CEC0EFD1ECE010196B7010E943F
:1003B000E6058E010F5E1F4FCE010596B8010E9423
:1003C000E6058A8991E089278A8BC701B801AE01C9
:1003D000475E5F4F0E9475000E941105A096E6E0FF
:1003E0000C947B0BA0E2B0E0E8EFF1E00C945F0B23
:1003F00069837A838B839C832D833E834F835887C5
:10040000F9E0EF2EF12CEC0EFD1ECE010196B701A6
:100410000E94E6058E010F5E1F4FCE010596B801C2
:100420000E94E605C701B801AE01475E5F4F0E941A
:1004300075000E941105A096E6E00C947B0BA0E2EB
:10044000B0E0E5E2F2E00C94530B69837A838B838E
:100450009C832D833E834F835887CE010196BE0136
:10046000675F7F4F0E94E605CE010596BE016F5E75
:100470007F4F0E94E6059985923088F08989823005
:10048000C8F0943019F4823051F404C0843029F457
:10049000923081F486E690E0C6C0923049F420E0C4
:1004A0009A858A89981321E02A87CE010996BBC0D4
:1004B000823049F420E09A858A89981321E02A8BBA
:1004C000CE014196B0C02D843E844F8458886D88FB
:1004D0007E888F88988CEE24FF248701AA24BB2471
:1004E000650140E050E060E070E0E0E0F0E0C10174
:1004F00081709070892BE9F0E60CF71C081D191D1E
:100500009A01AB012A0D3B1D4C1D5D1D80E090E062
:10051000A0E0B0E0E614F7040805190520F481E036
:1005200090E0A0E0B0E0BA01A901480F591F6A1F8E
:100530007B1FAA0CBB1CCC1CDD1C97FE08C081E0F5
:1005400090E0A0E0B0E0A82AB92ACA2ADB2A3196B6
:10055000E032F10549F0660C771C881C991C569412
:10056000479437942794C3CFFA85EA892B893C892D
:100570008B859C85280F391F2E5F3F4F17C0CA01FE
:1005800081709070892B61F016950795F794E79428
:1005900080E090E0A0E0B0E8E82AF92A0A2B1B2BC3
:1005A00076956795579547952F5F3F4F77FDE7CF36
:1005B0000CC0440F551F661F771F17FD4160EE0CDE
:1005C000FF1C001F111F21503040403090E05907A0
:1005D00090E0690790E4790760F32B8F3C8FDB0193
:1005E000CA018F779070A070B07080349105A1051A
:1005F000B10561F447FD0AC0E114F10401051105DC
:1006000029F0405C5F4F6F4F7F4F40781A8EFE1786
:1006100011F081E08A8F4D8F5E8F6F8F78A383E01A
:10062000898FCE0149960E941105A096E2E10C94B3
:100630006F0BA8E1B0E0EFE1F3E00C945B0B698392
:100640007A838B839C832D833E834F835887B9E0C5
:10065000EB2EF12CEC0EFD1ECE010196B7010E948F
:10066000E6058E010F5E1F4FCE010596B8010E9470
:10067000E6052985223008F47EC03989323010F42D
:10068000B8017CC08A859A8989278A87243011F02D
:10069000223031F4231709F06EC066E670E06EC0B8
:1006A000343039F41D861E861F86188A1C861B86E8
:1006B00004C0323021F484E08987B7015FC02B8504
:1006C0003C858B899C89281B390B3C872B87ED84C3
:1006D000FE840F851889AD88BE88CF88D88CEA142F
:1006E000FB040C051D0540F4EE0CFF1C001F111F40
:1006F000215030403C872B8720E030E040E050E044
:1007000080E090E0A0E0B0E460E070E0EA14FB0478
:100710000C051D0540F0282B392B4A2B5B2BEA18C2
:10072000FB080C091D09B695A79597958795EE0CC2
:10073000FF1C001F111F6F5F7F4F6F31710531F775
:10074000DA01C9018F779070A070B0708034910584
:10075000A105B10561F427FD0AC0E114F10401050A
:10076000110529F0205C3F4F4F4F5F4F20782D87B8
:100770003E874F87588BBE01675F7F4FCB010E943A
:1007800011056896EAE00C94770BA8E1B0E0EBEC79
:10079000F3E00C945F0B69837A838B839C832D83B6
:1007A0003E834F83588789E0E82EF12CEC0EFD1E26
:1007B000CE010196B7010E94E6058E010F5E1F4F24
:1007C000CE010596B8010E94E6058985823040F089
:1007D0008989823028F0C701B8010E945E0601C0F5
:1007E0008FEF6896E6E00C947B0BACE0B0E0EBEFAB
:1007F000F3E00C94630B69837A838B839C83CE0133
:100800000196BE016B5F7F4F0E94E6058D818230AD
:1008100061F1823050F1843021F48E81882351F1CE
:100820002EC02F81388537FD20C06E812F313105D4
:100830001CF06623F9F023C08EE190E0821B930B3D
:1008400029853A854B855C8504C056954795379533
:1008500027958A95D2F76623B1F05095409530954B
:1008600021953F4F4F4F5F4F0EC020E030E040E0FA
:1008700050E009C02FEF3FEF4FEF5FE704C020E0EB
:1008800030E040E050E8B901CA012C96E2E00C9457
:100890007F0BA8E0B0E0EFE4F4E00C945B0B7B018D
:1008A0008C01611571058105910519F482E0898338
:1008B00060C083E089838EE1C82ED12CDC82CB829C
:1008C000ED82FE820F831887C801B7010E94C2041F
:1008D000FC013197F7FF3BC0222733272E1B3F0B2C
:1008E00057016801022E04C0D694C794B794A79408
:1008F0000A94D2F740E050E060E070E081E090E0E0
:10090000A0E0B0E004C0880F991FAA1FBB1F2A9562
:10091000D2F70197A109B1098E219F21A023B1230C
:100920000097A105B10521F041E050E060E070E0E2
:100930004A295B296C297D294D835E836F837887E3
:100940008EE190E08E1B9F0B9C838B8312C03097AF
:1009500081F00E2E04C0EE0CFF1C001F111F0A9424
:10096000D2F7ED82FE820F831887CE1ADF0ADC826F
:10097000CB821A82CE0101960E9411052896EAE0E8
:100980000C94770BEF92FF920F931F937B018C01D6
:1009900080E0E81680E0F80681E0080780E01807AC
:1009A00088F48FEFE816F1040105110531F028F005
:1009B00088E090E0A0E0B0E017C080E090E0A0E028
:1009C000B0E012C080E0E81680E0F80680E008079A
:1009D00081E0180728F088E190E0A0E0B0E004C0D2
:1009E00080E190E0A0E0B0E020E230E040E050E0C4
:1009F000281B390B4A0B5B0B04C016950795F7941F
:100A0000E7948A95D2F7F701E259FF4F8081281BBE
:100A1000310941095109C9011F910F91FF90EF90D0
:100A20000895DF92EF92FF920F931F93FC01E480F1
:100A3000F58006811781D1808081823048F480E082
:100A400090E0A0E1B0E0E82AF92A0A2B1B2BA5C010
:100A5000843009F49FC0823021F4EE24FF24870102
:100A600005C0E114F1040105110519F4E0E0F0E01E
:100A700096C0628173819FEF623879070CF05BC08A
:100A800022E83FEF261B370B2A3131052CF020E0FE
:100A900030E040E050E02AC0B801A701022E04C0B7
:100AA00076956795579547950A94D2F781E090E03F
:100AB000A0E0B0E004C0880F991FAA1FBB1F2A95B1
:100AC000D2F70197A109B1098E219F21A023B1235B
:100AD0000097A105B10521F081E090E0A0E0B0E031
:100AE0009A01AB01282B392B4A2B5B2BDA01C90168
:100AF0008F779070A070B07080349105A105B1051A
:100B000039F427FF09C0205C3F4F4F4F5F4F04C0AF
:100B1000215C3F4F4F4F5F4FE0E0F0E02030A0E01E
:100B20003A07A0E04A07A0E45A0710F0E1E0F0E03D
:100B300079018A0127C06038710564F5FB01E1582D
:100B4000FF4FD801C7018F779070A070B0708034CC
:100B50009105A105B10539F4E7FE0DC080E490E0F0
:100B6000A0E0B0E004C08FE390E0A0E0B0E0E80EC9
:100B7000F91E0A1F1B1F17FF05C016950795F7944E
:100B8000E794319687E016950795F794E7948A9550
:100B9000D1F705C0EE24FF248701EFEFF0E06E2FC0
:100BA000679566276795902F9F77D794DD24D79414
:100BB0008E2F8695492F462B582F5D29B701CA01E4
:100BC0001F910F91FF90EF90DF900895FC01DB01E2
:100BD000408151812281622F6F7770E0221F22278E
:100BE000221F9381892F880F822B282F30E0991F95
:100BF0009927991F11969C93119721153105A9F5F5
:100C0000411551056105710511F482E037C082E894
:100C10009FEF13969C938E9312979A01AB0167E016
:100C2000220F331F441F551F6A95D1F783E08C9321
:100C30000DC0220F331F441F551F12968D919C919A
:100C40001397019713969C938E931297203080E010
:100C5000380780E0480780E4580758F314962D932E
:100C60003D934D935C93179708952F3F310579F489
:100C7000411551056105710519F484E08C930895BF
:100C800064FF03C081E08C9312C01C9210C02F57E8
:100C9000304013963C932E93129783E08C9387E019
:100CA000440F551F661F771F8A95D1F770641496FD
:100CB0004D935D936D937C93179708951F93DC017B
:100CC000FB019C91923008F447C08081823008F487
:100CD00043C0943051F411961C91843099F5818170
:100CE000682F70E0611B71093FC0843021F09230A1
:100CF00031F48230B9F18181882389F12DC01196B8
:100D00001C9111978230F1F081811817D9F4129655
:100D10002D913C911397828193818217930794F0D0
:100D200028173907BCF014968D919D910D90BC91B8
:100D3000A02D2481358146815781281739074A071C
:100D40005B0718F4112341F00AC082179307A40728
:100D5000B50740F4112319F061E070E005C06FEFB2
:100D60007FEF02C060E070E0CB011F9108953E9AD2
:100D70003F98309A319A329A3D98359A8FB7806869
:100D80008FBF339A80B78F7D80BF80B7806480BF6C
:100D900080B78F7780BF369A379A08953B983C98F2
:100DA0008330C1F0843028F4813071F0823080F4D7
:100DB00009C08530A1F0853080F0863099F0873009
:100DC000B1F412C0389801C0389A39983A980FC0D7
:100DD000389801C0389A399AF9CF389801C0389AB2
:100DE000399804C0389801C0389A399A3A9A369A94
:100DF0003699FECF24B130E045B1942F80E0282B06
:100E0000392BB901660F771F660F771F620F731FAB
:100E100080E090E00E94490420E030E040E85AE39E
:100E20000E941F0220E030E04AE754E40E941F02C3
:100E30000E944900CB0108951F920F920FB60F92A6
:100E400011242F933F934F938F939F9384B145B178
:100E5000342F20E090E0282B392B30936F01209322
:100E60006E019F918F914F913F912F910F900FBEE7
:100E70000F901F90189584B145B1342F20E090E079
:100E8000282B392B30936F0120936E0108958091A8
:100E90006E0190916F010895813029F1813038F011
:100EA000823009F43CC0833009F06EC053C0413039
:100EB00059F42AB381E090E002C0880F991F6A9527
:100EC000E2F7282B2ABB0895442309F05DC02AB31A
:100ED00081E090E002C0880F991F6A95E2F7809543
:100EE00082238ABB0895413059F427B381E090E012
:100EF00002C0880F991F6A95E2F7282B27BB089537
:100F0000442309F041C027B381E090E002C0880F7C
:100F1000991F6A95E2F78095822387BB0895413037
:100F200059F424B381E090E002C0880F991F6A95BC
:100F3000E2F7282B24BB0895442331F524B381E044
:100F400090E002C0880F991F6A95E2F7809582238E
:100F500084BB0895413059F421B381E090E002C090
:100F6000880F991F6A95E2F7282B21BB0895442327
:100F700059F421B381E090E002C0880F991F6A956F
:100F8000E2F78095822381BB0895813081F0813022
:100F900028F08230A9F0833021F51BC0613019F4AC
:100FA0008FEF8ABB08956623E1F41ABA0895613081
:100FB00019F48FEF87BB0895662399F417BA089543
:100FC000613019F48FEF84BB0895662351F414BA8D
:100FD0000895613019F48FEF81BB0895662309F4F9
:100FE00011BA0895982F80B78B7F80BF913091F010
:100FF000913028F09230C9F0933061F521C02BB3C5
:1010000081E090E002C0880F991F6A95E2F7282BD3
:101010002BBB089528B381E090E002C0880F991F90
:101020006A95E2F7282B28BB089525B381E090E06C
:1010300002C0880F991F6A95E2F7282B25BB0895F7
:1010400022B381E090E002C0880F991F6A95E2F711
:10105000282B22BB0895813079F1813038F082301D
:1010600009F450C0833009F096C071C08AB390E093
:10107000062E02C0959587950A94E2F780FF8BC0F3
:10108000413059F42BB381E090E002C0880F991FE2
:101090006A95E2F7282B2BBB0895442309F07BC007
:1010A0002BB381E090E002C0880F991F6A95E2F7A8
:1010B000809582238BBB089587B390E0062E02C0F3
:1010C000959587950A94E2F780FF65C0413059F401
:1010D00028B381E090E002C0880F991F6A95E2F77B
:1010E000282B28BB0895442309F055C028B381E07C
:1010F00090E002C0880F991F6A95E2F780958223DD
:1011000088BB089584B390E0062E02C0959587951C
:101110000A94E2F780FF3FC0413059F425B381E0E3
:1011200090E002C0880F991F6A95E2F7282B25BB33
:101130000895442381F525B381E090E002C0880F33
:10114000991F6A95E2F78095822385BB089581B344
:1011500090E0062E02C0959587950A94E2F780FFED
:101160001AC0413059F422B381E090E002C0880FE8
:10117000991F6A95E2F7282B22BB0895442359F45E
:1011800022B381E090E002C0880F991F6A95E2F7D0
:101190008095822382BB0895813051F0813030F0F8
:1011A000823041F0833079F080E0089589B303C044
:1011B00086B301C083B390E002C0959587956A9588
:1011C000E2F78170089580B390E002C0959587950D
:1011D0006A95E2F781700895813049F0813028F0F6
:1011E000823039F0833041F406C06BBB089568BB90
:1011F000089565BB089562BB089590937101809333
:1012000070010895909373018093720108959093F3
:1012100075018093740108951F920F920FB60F927B
:1012200011242F933F934F935F936F937F938F93EB
:101230009F93AF93BF93EF93FF93E0917001F09171
:1012400071010995FF91EF91BF91AF919F918F919E
:101250007F916F915F914F913F912F910F900FBEB2
:101260000F901F9018951F920F920FB60F92112496
:101270002F933F934F935F936F937F938F939F939E
:10128000AF93BF93EF93FF93E0917201F0917301DD
:101290000995FF91EF91BF91AF919F918F917F91B0
:1012A0006F915F914F913F912F910F900FBE0F90D3
:1012B0001F9018951F920F920FB60F9211242F9323
:1012C0003F934F935F936F937F938F939F93AF93CE
:1012D000BF93EF93FF93E0917401F091750109952D
:1012E000FF91EF91BF91AF919F918F917F916F91FE
:1012F0005F914F913F912F910F900FBE0F901F90D4
:10130000189581E062E040E00E944C078FB780684A
:101310008FBF84B7806484BF8BB780628BBF089512
:1013200083E063E040E00E944C0783E063E00E94BA
:10133000F2078FB780688FBF85B78B7F85BF85B772
:10134000877F85BF8BB780688BBF089583E062E09D
:1013500040E00E944C0783E062E00E94F2078FB7F2
:1013600080688FBF85B78E7F85BF85B7826085BF58
:101370008BB780648BBF0895FF920F931F93F82E55
:1013800081E067E041E00E942B0881E066E040E0F8
:101390000E942B0804EF11E0C8010197F1F781E0EA
:1013A00065E041E00E942B08C8010197F1F782E057
:1013B0006F2D0E94EC08C8010197F1F781E065E00C
:1013C00040E00E942B08C8010197F1F71F910F918F
:1013D000FF9008951F93CF93DF93EC0110E003C0BB
:1013E0000E94BC091F5FFE01E10FF11D808188236F
:1013F000B9F7DF91CF911F9108954F925F926F924D
:101400007F928F929F92BF92CF92DF92EF92FF9244
:101410000F931F93DF93CF93CDB7DEB7C456D04061
:101420000FB6F894DEBF0FBECDBF162F072F262FA5
:10143000372FAC01C901DA019C01AD0160E0E0E0A9
:101440000CC0C9016AE070E00E942C0B9B0144278C
:1014500037FD4095542F6E2FEF5F21153105410563
:10146000510579F7FE01319684E6DF011D928A95D8
:10147000E9F7212F302FC9017C01BB2400E010E0E7
:10148000862E99242F013401609470942BC0C901D9
:10149000880F991F53E0220F331F5A95E1F7280F49
:1014A000391F4F5F842F90E08617970784F3C70199
:1014B000B9010E942C0B6701C81AD90AF201E00F8A
:1014C000F11FEB0DF11DC601B9010E942C0B605DEF
:1014D0006083015010400615170559F0B2E0BB0EAD
:1014E000EC18FD08B801680D791D40E021E030E0FE
:1014F000D9CFC2010E94EA09CC59DF4F0FB6F89448
:10150000DEBF0FBECDBFCF91DF911F910F91FF9036
:10151000EF90DF90CF90BF909F908F907F906F90D3
:101520005F904F900895FF920F931F93F82E81E0E4
:1015300067E040E00E942B0881E066E040E00E9406
:101540002B0804EF11E0C8010197F1F781E065E095
:1015500041E00E942B08C8010197F1F782E06F2D4E
:101560000E94EC08C8010197F1F781E065E040E0D6
:101570000E942B08C8010197F1F71F910F91FF906E
:10158000089582E061E00E94C50781E065E041E0E6
:101590000E944C0781E066E041E00E944C0781E038
:1015A00067E041E00E944C078FE00E94930A88E3C5
:1015B0000E94930A82E00E94930A81E00E94930AAB
:1015C0000895DF93CF9300D000D0CDB7DEB70E944F
:1015D0003B070E9447079A83898329813A81B90191
:1015E000660F771F660F771F620F731F80E090E012
:1015F0000E94490420E030E04AE759E40E941903C0
:1016000020E030E040E050E40E94F2010E944900F6
:101610007C836B8380EC0E94930A80E690E00E94BA
:10162000EA0980EC0E94930A6B817C8180E090E063
:101630000E94FD090F900F900F900F90CF91DF91B6
:1016400008950E94C10A0E94B7060E94A60981EE71
:101650009AE00E94FD08FFCF97FB092E07260AD0CB
:1016600077FD04D00CD006D000201AF47095619557
:101670007F4F0895F6F7909581959F4F0895AA1B87
:10168000BB1B51E107C0AA1FBB1FA617B70710F06D
:10169000A61BB70B881F991F5A95A9F7809590959F
:1016A000BC01CD0108952F923F924F925F926F92AD
:1016B0007F928F929F92AF92BF92CF92DF92EF92E2
:1016C000FF920F931F93CF93DF93CDB7DEB7CA1B63
:1016D000DB0B0FB6F894DEBF0FBECDBF09942A888E
:1016E000398848885F846E847D848C849B84AA8436
:1016F000B984C884DF80EE80FD800C811B81AA81C3
:10170000B981CE0FD11D0FB6F894DEBF0FBECDBF8D
:08171000ED010895F894FFCFEC
:101718002020202020000000000000000000000120
:101728000202030303030404040404040404050577
:10173800050505050505050505050505050506064F
:101748000606060606060606060606060606060631
:10175800060606060606060606060606060607071F
:101768000707070707070707070707070707070701
:1017780007070707070707070707070707070707F1
:1017880007070707070707070707070707070707E1
:1017980007070707070707070707070707070808CF
:1017A80008080808080808080808080808080808B1
:1017B80008080808080808080808080808080808A1
:1017C8000808080808080808080808080808080891
:1017D8000808080808080808080808080808080881
:1017E8000808080808080808080808080808080871
:1017F8000808080808080808080808080808080861
:101808000808080808080808080808080808080850
:0E181800080808080808080808080808080852
:00000001FF
